{
  "_format": "hh-sol-artifact-1",
  "contractName": "FlashLoan",
  "sourceName": "contracts/FlashLoan.sol",
  "abi": [
    {
      "inputs": [
        {
          "internalType": "address",
          "name": "_addressProvider",
          "type": "address"
        }
      ],
      "stateMutability": "nonpayable",
      "type": "constructor"
    },
    {
      "anonymous": false,
      "inputs": [
        {
          "indexed": true,
          "internalType": "address",
          "name": "_from",
          "type": "address"
        },
        {
          "indexed": true,
          "internalType": "address",
          "name": "_assetAddress",
          "type": "address"
        },
        {
          "indexed": false,
          "internalType": "uint256",
          "name": "amount",
          "type": "uint256"
        }
      ],
      "name": "LogWithdraw",
      "type": "event"
    },
    {
      "anonymous": false,
      "inputs": [
        {
          "indexed": true,
          "internalType": "address",
          "name": "previousOwner",
          "type": "address"
        },
        {
          "indexed": true,
          "internalType": "address",
          "name": "newOwner",
          "type": "address"
        }
      ],
      "name": "OwnershipTransferred",
      "type": "event"
    },
    {
      "inputs": [],
      "name": "ADDRESSES_PROVIDER",
      "outputs": [
        {
          "internalType": "contract ILendingPoolAddressesProviderV2",
          "name": "",
          "type": "address"
        }
      ],
      "stateMutability": "view",
      "type": "function"
    },
    {
      "inputs": [],
      "name": "LENDING_POOL",
      "outputs": [
        {
          "internalType": "contract ILendingPoolV2",
          "name": "",
          "type": "address"
        }
      ],
      "stateMutability": "view",
      "type": "function"
    },
    {
      "inputs": [
        {
          "internalType": "address[]",
          "name": "assets",
          "type": "address[]"
        },
        {
          "internalType": "uint256[]",
          "name": "amounts",
          "type": "uint256[]"
        },
        {
          "internalType": "uint256[]",
          "name": "premiums",
          "type": "uint256[]"
        },
        {
          "internalType": "address",
          "name": "initiator",
          "type": "address"
        },
        {
          "internalType": "bytes",
          "name": "params",
          "type": "bytes"
        }
      ],
      "name": "executeOperation",
      "outputs": [
        {
          "internalType": "bool",
          "name": "",
          "type": "bool"
        }
      ],
      "stateMutability": "nonpayable",
      "type": "function"
    },
    {
      "inputs": [
        {
          "internalType": "uint256",
          "name": "amount",
          "type": "uint256"
        },
        {
          "internalType": "address",
          "name": "_asset",
          "type": "address"
        }
      ],
      "name": "flashloan",
      "outputs": [],
      "stateMutability": "nonpayable",
      "type": "function"
    },
    {
      "inputs": [],
      "name": "owner",
      "outputs": [
        {
          "internalType": "address",
          "name": "",
          "type": "address"
        }
      ],
      "stateMutability": "view",
      "type": "function"
    },
    {
      "inputs": [],
      "name": "renounceOwnership",
      "outputs": [],
      "stateMutability": "nonpayable",
      "type": "function"
    },
    {
      "inputs": [
        {
          "internalType": "address",
          "name": "newOwner",
          "type": "address"
        }
      ],
      "name": "transferOwnership",
      "outputs": [],
      "stateMutability": "nonpayable",
      "type": "function"
    },
    {
      "inputs": [
        {
          "internalType": "address",
          "name": "_assetAddress",
          "type": "address"
        }
      ],
      "name": "withdraw",
      "outputs": [],
      "stateMutability": "nonpayable",
      "type": "function"
    },
    {
      "stateMutability": "payable",
      "type": "receive"
    }
  ],
  "bytecode": "0x60c06040523480156200001157600080fd5b5060405162001d1838038062001d18833981810160405281019062000037919062000232565b808073ffffffffffffffffffffffffffffffffffffffff1660808173ffffffffffffffffffffffffffffffffffffffff1660601b815250508073ffffffffffffffffffffffffffffffffffffffff16630261bf8b6040518163ffffffff1660e01b815260040160206040518083038186803b158015620000b657600080fd5b505afa158015620000cb573d6000803e3d6000fd5b505050506040513d601f19601f82011682018060405250810190620000f1919062000232565b73ffffffffffffffffffffffffffffffffffffffff1660a08173ffffffffffffffffffffffffffffffffffffffff1660601b8152505050620001486200013c6200014f60201b60201c565b6200015760201b60201c565b50620002ac565b600033905090565b60008060009054906101000a900473ffffffffffffffffffffffffffffffffffffffff169050816000806101000a81548173ffffffffffffffffffffffffffffffffffffffff021916908373ffffffffffffffffffffffffffffffffffffffff1602179055508173ffffffffffffffffffffffffffffffffffffffff168173ffffffffffffffffffffffffffffffffffffffff167f8be0079c531659141344cd1fd0a4f28419497f9722a3daafe3b4186f6b6457e060405160405180910390a35050565b6000815190506200022c8162000292565b92915050565b6000602082840312156200024557600080fd5b600062000255848285016200021b565b91505092915050565b60006200026b8262000272565b9050919050565b600073ffffffffffffffffffffffffffffffffffffffff82169050919050565b6200029d816200025e565b8114620002a957600080fd5b50565b60805160601c60a05160601c611a32620002e66000396000818161098c01528181610a830152610eaa015260006101dd0152611a326000f3fe60806040526004361061007f5760003560e01c80638da5cb5b1161004e5780638da5cb5b1461011f578063920f5c841461014a578063b4dcfc7714610187578063f2fde38b146101b257610086565b80630542975c1461008b57806351cff8d9146100b6578063619ce2da146100df578063715018a61461010857610086565b3661008657005b600080fd5b34801561009757600080fd5b506100a06101db565b6040516100ad91906116aa565b60405180910390f35b3480156100c257600080fd5b506100dd60048036038101906100d891906111a5565b6101ff565b005b3480156100eb57600080fd5b5061010660048036038101906101019190611308565b6103ff565b005b34801561011457600080fd5b5061011d610656565b005b34801561012b57600080fd5b506101346106de565b60405161014191906115c0565b60405180910390f35b34801561015657600080fd5b50610171600480360381019061016c91906111ce565b610707565b60405161017e919061168f565b60405180910390f35b34801561019357600080fd5b5061019c610a81565b6040516101a991906116c5565b60405180910390f35b3480156101be57600080fd5b506101d960048036038101906101d491906111a5565b610aa5565b005b7f000000000000000000000000000000000000000000000000000000000000000081565b610207610b9d565b73ffffffffffffffffffffffffffffffffffffffff166102256106de565b73ffffffffffffffffffffffffffffffffffffffff161461027b576040517f08c379a000000000000000000000000000000000000000000000000000000000815260040161027290611722565b60405180910390fd5b60008173ffffffffffffffffffffffffffffffffffffffff166370a08231306040518263ffffffff1660e01b81526004016102b691906115c0565b60206040518083038186803b1580156102ce57600080fd5b505afa1580156102e2573d6000803e3d6000fd5b505050506040513d601f19601f8201168201806040525081019061030691906112df565b90508173ffffffffffffffffffffffffffffffffffffffff1663a9059cbb33836040518363ffffffff1660e01b8152600401610343929190611666565b602060405180830381600087803b15801561035d57600080fd5b505af1158015610371573d6000803e3d6000fd5b505050506040513d601f19601f8201168201806040525081019061039591906112b6565b508173ffffffffffffffffffffffffffffffffffffffff163373ffffffffffffffffffffffffffffffffffffffff167f9207361cc2a04b9c7a06691df1eb87c6a63957ae88bf01d0d18c81e3d1272099836040516103f39190611742565b60405180910390a35050565b60006040518060200160405280600081525090506104516040518060400160405280601181526020017f61736b696e6720666f72206d6f6e657979000000000000000000000000000000815250610ba5565b61045a83610c3e565b61046382610cd7565b6000600167ffffffffffffffff8111156104a6577f4e487b7100000000000000000000000000000000000000000000000000000000600052604160045260246000fd5b6040519080825280602002602001820160405280156104d45781602001602082028036833780820191505090505b5090508281600081518110610512577f4e487b7100000000000000000000000000000000000000000000000000000000600052603260045260246000fd5b602002602001019073ffffffffffffffffffffffffffffffffffffffff16908173ffffffffffffffffffffffffffffffffffffffff16815250506000600167ffffffffffffffff81111561058f577f4e487b7100000000000000000000000000000000000000000000000000000000600052604160045260246000fd5b6040519080825280602002602001820160405280156105bd5781602001602082028036833780820191505090505b50905084816000815181106105fb577f4e487b7100000000000000000000000000000000000000000000000000000000600052603260045260246000fd5b6020026020010181815250506106456040518060400160405280601881526020017f63616c6c696e672061637475616c2066756e6374696f6e730000000000000000815250610ba5565b61064f8282610d70565b5050505050565b61065e610b9d565b73ffffffffffffffffffffffffffffffffffffffff1661067c6106de565b73ffffffffffffffffffffffffffffffffffffffff16146106d2576040517f08c379a00000000000000000000000000000000000000000000000000000000081526004016106c990611722565b60405180910390fd5b6106dc6000610f86565b565b60008060009054906101000a900473ffffffffffffffffffffffffffffffffffffffff16905090565b60006107476040518060400160405280601a81526020017f657865637574696e67206f7073202e2e20676f74206d6f6e6579000000000000815250610ba5565b600047905061075581610c3e565b6107936040518060400160405280601681526020017f6e6f772073656e64696e67206d6f6e6579206261636b00000000000000000000815250610ba5565b61079c81610c3e565b6107f38b8b60008181106107d9577f4e487b7100000000000000000000000000000000000000000000000000000000600052603260045260246000fd5b90506020020160208101906107ee91906111a5565b610cd7565b61083c89896000818110610830577f4e487b7100000000000000000000000000000000000000000000000000000000600052603260045260246000fd5b90506020020135610c3e565b61088587876000818110610879577f4e487b7100000000000000000000000000000000000000000000000000000000600052603260045260246000fd5b90506020020135610c3e565b60005b8b8b9050811015610a305760008888838181106108ce577f4e487b7100000000000000000000000000000000000000000000000000000000600052603260045260246000fd5b905060200201358b8b8481811061090e577f4e487b7100000000000000000000000000000000000000000000000000000000600052603260045260246000fd5b9050602002013561091f9190611807565b90508c8c8381811061095a577f4e487b7100000000000000000000000000000000000000000000000000000000600052603260045260246000fd5b905060200201602081019061096f91906111a5565b73ffffffffffffffffffffffffffffffffffffffff1663095ea7b37f0000000000000000000000000000000000000000000000000000000000000000836040518363ffffffff1660e01b81526004016109c9929190611666565b602060405180830381600087803b1580156109e357600080fd5b505af11580156109f7573d6000803e3d6000fd5b505050506040513d601f19601f82011682018060405250810190610a1b91906112b6565b50508080610a289061192e565b915050610888565b50610a6f6040518060400160405280600f81526020017f73656e74206d6f6e6579206261636b0000000000000000000000000000000000815250610ba5565b60019150509998505050505050505050565b7f000000000000000000000000000000000000000000000000000000000000000081565b610aad610b9d565b73ffffffffffffffffffffffffffffffffffffffff16610acb6106de565b73ffffffffffffffffffffffffffffffffffffffff1614610b21576040517f08c379a0000000000000000000000000000000000000000000000000000000008152600401610b1890611722565b60405180910390fd5b600073ffffffffffffffffffffffffffffffffffffffff168173ffffffffffffffffffffffffffffffffffffffff161415610b91576040517f08c379a0000000000000000000000000000000000000000000000000000000008152600401610b8890611702565b60405180910390fd5b610b9a81610f86565b50565b600033905090565b610c3b81604051602401610bb991906116e0565b6040516020818303038152906040527f41304fac000000000000000000000000000000000000000000000000000000007bffffffffffffffffffffffffffffffffffffffffffffffffffffffff19166020820180517bffffffffffffffffffffffffffffffffffffffffffffffffffffffff838183161783525050505061104a565b50565b610cd481604051602401610c529190611742565b6040516020818303038152906040527ff5b1bba9000000000000000000000000000000000000000000000000000000007bffffffffffffffffffffffffffffffffffffffffffffffffffffffff19166020820180517bffffffffffffffffffffffffffffffffffffffffffffffffffffffff838183161783525050505061104a565b50565b610d6d81604051602401610ceb91906115c0565b6040516020818303038152906040527f2c2ecbc2000000000000000000000000000000000000000000000000000000007bffffffffffffffffffffffffffffffffffffffffffffffffffffffff19166020820180517bffffffffffffffffffffffffffffffffffffffffffffffffffffffff838183161783525050505061104a565b50565b600030905060003090506000604051806020016040528060008152509050600080865167ffffffffffffffff811115610dd2577f4e487b7100000000000000000000000000000000000000000000000000000000600052604160045260246000fd5b604051908082528060200260200182016040528015610e005781602001602082028036833780820191505090505b50905060005b8751811015610e69576000828281518110610e4a577f4e487b7100000000000000000000000000000000000000000000000000000000600052603260045260246000fd5b6020026020010181815250508080610e619061192e565b915050610e06565b50610ea86040518060400160405280601481526020017f63616c6c696e67206c656e64696e6720706f6f6c000000000000000000000000815250610ba5565b7f000000000000000000000000000000000000000000000000000000000000000073ffffffffffffffffffffffffffffffffffffffff1663ab9c4b5d868989858989896040518863ffffffff1660e01b8152600401610f0d97969594939291906115db565b600060405180830381600087803b158015610f2757600080fd5b505af1158015610f3b573d6000803e3d6000fd5b50505050610f7d6040518060400160405280601381526020017f63616c6c6564206c656e64696e6720706f6f6b00000000000000000000000000815250610ba5565b50505050505050565b60008060009054906101000a900473ffffffffffffffffffffffffffffffffffffffff169050816000806101000a81548173ffffffffffffffffffffffffffffffffffffffff021916908373ffffffffffffffffffffffffffffffffffffffff1602179055508173ffffffffffffffffffffffffffffffffffffffff168173ffffffffffffffffffffffffffffffffffffffff167f8be0079c531659141344cd1fd0a4f28419497f9722a3daafe3b4186f6b6457e060405160405180910390a35050565b60008151905060006a636f6e736f6c652e6c6f679050602083016000808483855afa5050505050565b600081359050611082816119b7565b92915050565b60008083601f84011261109a57600080fd5b8235905067ffffffffffffffff8111156110b357600080fd5b6020830191508360208202830111156110cb57600080fd5b9250929050565b60008083601f8401126110e457600080fd5b8235905067ffffffffffffffff8111156110fd57600080fd5b60208301915083602082028301111561111557600080fd5b9250929050565b60008151905061112b816119ce565b92915050565b60008083601f84011261114357600080fd5b8235905067ffffffffffffffff81111561115c57600080fd5b60208301915083600182028301111561117457600080fd5b9250929050565b60008135905061118a816119e5565b92915050565b60008151905061119f816119e5565b92915050565b6000602082840312156111b757600080fd5b60006111c584828501611073565b91505092915050565b600080600080600080600080600060a08a8c0312156111ec57600080fd5b60008a013567ffffffffffffffff81111561120657600080fd5b6112128c828d01611088565b995099505060208a013567ffffffffffffffff81111561123157600080fd5b61123d8c828d016110d2565b975097505060408a013567ffffffffffffffff81111561125c57600080fd5b6112688c828d016110d2565b9550955050606061127b8c828d01611073565b93505060808a013567ffffffffffffffff81111561129857600080fd5b6112a48c828d01611131565b92509250509295985092959850929598565b6000602082840312156112c857600080fd5b60006112d68482850161111c565b91505092915050565b6000602082840312156112f157600080fd5b60006112ff84828501611190565b91505092915050565b6000806040838503121561131b57600080fd5b60006113298582860161117b565b925050602061133a85828601611073565b9150509250929050565b60006113508383611374565b60208301905092915050565b600061136883836115a2565b60208301905092915050565b61137d8161185d565b82525050565b61138c8161185d565b82525050565b600061139d8261177d565b6113a781856117c3565b93506113b28361175d565b8060005b838110156113e35781516113ca8882611344565b97506113d5836117a9565b9250506001810190506113b6565b5085935050505092915050565b60006113fb82611788565b61140581856117d4565b93506114108361176d565b8060005b83811015611441578151611428888261135c565b9750611433836117b6565b925050600181019050611414565b5085935050505092915050565b6114578161186f565b82525050565b600061146882611793565b61147281856117e5565b93506114828185602086016118fb565b61148b816119a6565b840191505092915050565b61149f816118b3565b82525050565b6114ae816118d7565b82525050565b60006114bf8261179e565b6114c981856117f6565b93506114d98185602086016118fb565b6114e2816119a6565b840191505092915050565b60006114fa6026836117f6565b91507f4f776e61626c653a206e6577206f776e657220697320746865207a65726f206160008301527f64647265737300000000000000000000000000000000000000000000000000006020830152604082019050919050565b60006115606020836117f6565b91507f4f776e61626c653a2063616c6c6572206973206e6f7420746865206f776e65726000830152602082019050919050565b61159c8161187b565b82525050565b6115ab816118a9565b82525050565b6115ba816118a9565b82525050565b60006020820190506115d56000830184611383565b92915050565b600060e0820190506115f0600083018a611383565b81810360208301526116028189611392565b9050818103604083015261161681886113f0565b9050818103606083015261162a81876113f0565b90506116396080830186611383565b81810360a083015261164b818561145d565b905061165a60c0830184611593565b98975050505050505050565b600060408201905061167b6000830185611383565b61168860208301846115b1565b9392505050565b60006020820190506116a4600083018461144e565b92915050565b60006020820190506116bf6000830184611496565b92915050565b60006020820190506116da60008301846114a5565b92915050565b600060208201905081810360008301526116fa81846114b4565b905092915050565b6000602082019050818103600083015261171b816114ed565b9050919050565b6000602082019050818103600083015261173b81611553565b9050919050565b600060208201905061175760008301846115b1565b92915050565b6000819050602082019050919050565b6000819050602082019050919050565b600081519050919050565b600081519050919050565b600081519050919050565b600081519050919050565b6000602082019050919050565b6000602082019050919050565b600082825260208201905092915050565b600082825260208201905092915050565b600082825260208201905092915050565b600082825260208201905092915050565b6000611812826118a9565b915061181d836118a9565b9250827fffffffffffffffffffffffffffffffffffffffffffffffffffffffffffffffff0382111561185257611851611977565b5b828201905092915050565b600061186882611889565b9050919050565b60008115159050919050565b600061ffff82169050919050565b600073ffffffffffffffffffffffffffffffffffffffff82169050919050565b6000819050919050565b60006118be826118c5565b9050919050565b60006118d082611889565b9050919050565b60006118e2826118e9565b9050919050565b60006118f482611889565b9050919050565b60005b838110156119195780820151818401526020810190506118fe565b83811115611928576000848401525b50505050565b6000611939826118a9565b91507fffffffffffffffffffffffffffffffffffffffffffffffffffffffffffffffff82141561196c5761196b611977565b5b600182019050919050565b7f4e487b7100000000000000000000000000000000000000000000000000000000600052601160045260246000fd5b6000601f19601f8301169050919050565b6119c08161185d565b81146119cb57600080fd5b50565b6119d78161186f565b81146119e257600080fd5b50565b6119ee816118a9565b81146119f957600080fd5b5056fea2646970667358221220b37c8fa29e6e36789142d2259b58a0f2fb6857cbb65a4b2c8fefbcc0e082553964736f6c63430008000033",
  "linkReferences": {},
  "deployedLinkReferences": {}
}